:020000040000FA
:1000000018F09FE518F09FE518F09FE518F09FE5C0
:1000100018F09FE50000A0E1F0FF1FE518F09FE554
:100020005800000040000000F41A000048000000E2
:100030004C000000000000005000000054000000D0
:10004000FEFFFFEAFEFFFFEAFEFFFFEAFEFFFFEA18
:10005000FEFFFFEAFEFFFFEA94009FE5AA10A0E37F
:100060005520A0E32430A0E3043080E50130A0E374
:10007000003080E50C1080E50C2080E5083090E52C
:10008000013B13E2FCFFFF0A0330A0E3003080E5F0
:100090000C1080E50C2080E558009FE50410A0E3DB
:1000A000041080E50210A0E3001080E548009FE501
:1000B000DBF021E300D0A0E1080040E2D7F021E32B
:1000C00000D0A0E1080040E2D1F021E300D0A0E19F
:1000D000080040E2D2F021E300D0A0E1030C40E2AE
:1000E000D3F021E300D0A0E1030C40E20C009FE537
:1000F00010FF2FE180C01FE000C01FE0C83C00409F
:1001000004010000000000EB2E0000EB2C008FE249
:10011000000C90E800A08AE000B08BE001704AE299
:100120000B005AE10000001A260000EB0F00BAE8AD
:1001300018E04FE2010013E303F0471013FF2FE133
:10014000601B0000801B0000102052E27800B028E5
:100150007800A128FBFFFF8A822EB0E13000B02892
:100160003000A12800409045004081451EFF2FE14E
:100170000030B0E30040B0E30050B0E30060B0E313
:10018000102052E27800A128FCFFFF8A822EB0E105
:100190003000A128003081451EFF2FE101C08FE211
:1001A0001CFF2FE11FB5059886460FBC009C02B0CE
:1001B0007047000001C08FE21CFF2FE130B475468C
:1001C000AE4630BC704700000A0600EB0210A0E10A
:1001D000F1FFFFEB1CC09FE50FC08CE001001CE3AA
:1001E0000DE08F120FE0A0011CFF2FE101C08FE294
:1001F0001CFF2FE101F030FC750200007847C0467B
:1002000003002DE9EAFFFFEB0300BDE8190600EB50
:100210000C009FE50C109FE504209FE508309FE54A
:100220001EFF2FE1A8360040B0390040A83600403C
:1002300001002DE900204DE90000A0E104D04DE2CD
:100240000100BDE8004020E900E0A0E10100BDE8B8
:10025000FF7F4EE90000A0E13CE04EE200004FE1EC
:1002600001002EE94C009FE5000090E501002EE919
:1002700044009FE5001090E500E081E53C009FE52B
:100280000FE0A0E110FF2FE12C009FE5000090E5BA
:1002900000E090E51C009FE50200BEE8001080E54C
:1002A0000100BEE800F06FE1FF7FDEE80000A0E1A2
:1002B0003CE09EE504F05EE29C00004060000040EF
:1002C0007D05000000205BE041004118514A515C6F
:1002D000002902D0012950D127E0410041184D4AA0
:1002E0008918897800290CD14B4989684200821805
:1002F000484BD218537801229A409143464A916064
:1003000012E041004118434A8918897801290BD12C
:1003100041498968420082183E4BD2185378012225
:100320009A4011433C4A916028E041004118394A03
:100330008918897800290CD13749896942008218C7
:10034000344BD218537801229A409143324A91613A
:1003500012E0410041182F4A8918897801290BD1F0
:100360002D498969420082182A4BD21853780122FC
:100370009A401143284A916100E0C046C046401CA3
:100380002649098888429FDB70470200002A02D074
:10039000012A0CD105E0204B1B68CB40D807C00FC9
:1003A00005E01D4B1B69CB40D807C00FC046C046B7
:1003B000704710B4002802D0012827D113E0002A8A
:1003C00007D1154BDB6801248C402343124CE360BA
:1003D00008E0012A06D1104B5B6801248C402343BE
:1003E0000D4C636012E0002A07D10B4BDB6901243E
:1003F0008C402343084CE36108E0012A06D1064BF8
:100400005B6901248C402343034C6361C04610BCEC
:100410007047000000000040008002E05A000040E9
:100420007D20C0001549C8600800406801210843CC
:1004300012494860704710B5E120400200F022F8F0
:10044000FFF740FFFFF7ECFF01200D49087010BCDB
:1004500008BC1847FFF7EFFF00F092FDC046FEE72B
:100460000648406802210843044948600800406883
:10047000022188430149486070470000008000E085
:1004800000C11FE070B505005A4800680121090449
:10049000084358490860080000680121890408439E
:1004A000544908602E013100534801F0F1FA04006C
:1004B0005248007B80210843504908730C70240A7D
:1004C0000C7107200872032008734814C06880214B
:1004D00088434B49C86008000069802108434849A7
:1004E00008614848484948602720484948604348CF
:1004F0000079032108434149087170BC08BC1847C2
:10050000010043480078012809D10020404A1070BA
:10051000404800780006001608700120704700204F
:10052000FCE7364A1070704770B505000C003A4879
:100530000078002820D1002D1ED038490C70364993
:100540000C70002303E0E85C3549C8545B1CA342EF
:10055000F9DB31490A780978491E2F4E31702F494D
:100560000978891A2E4A515C09060816FFF7D9FF47
:10057000012070BC08BC18470020FAE710B41F4ADD
:10058000107A2EE00207120F022A0BD0042A1CD088
:10059000062A02D00C2A20D116E0184A127D110634
:1005A00009161BE01C4A1278002A0CDD1A4A13783F
:1005B0001278521E184C2270184A1278D21A184B10
:1005C0009A5C0E4B1A7009E0C0460C4A1278114B27
:1005D0001A7001220E4B1A7000E0C046C046074A4E
:1005E000107AC207D20F002ACCD00022044B1A6323
:1005F00010BC704700C002E000879303000001E0D8
:1006000000F0FFFF3002000000F1FFFF00F2FFFFEB
:100610005D0000405C0000405F0000405E00004064
:10062000B800004010B501F047F8F648046801F042
:100630004EF8200010BC08BC184710B5002406E096
:1006400014216143F04A881800F082FF641C042CD6
:10065000F6D3EE4800F07CFFED4800F079FFED485E
:1006600000F076FFEC4800F073FFEC4800F070FFFC
:10067000E648EB490860E648EA490860EA4800F0C5
:1006800067FF10BC08BC184710B5040001F014F84F
:10069000E6480068401CE5490860E5480068002815
:1006A00008D1E34804600800006801280ED1FFF774
:1006B000C4FF0BE0DF480068002807D1DC48006871
:1006C000C06AE16A884201D8D9480460DA48006803
:1006D000401CD9490860FFF7A5FFE16B4018606036
:1006E000D649E06A0968884202D9D449E06A0860BC
:1006F000211DCD4800F048FF00F0E9FFCD4800681B
:10070000002807D0CA480068C06AE16A884201D25E
:1007100001F09AFA10BC08BC1847FFB581B00E0072
:100720000A9F0C9C216B0398401E800008180090C3
:100730000098C008C0000090002E11D0002508E0ED
:10074000715D200034304155705D002800D102E019
:100750006D1C082DF4D3C04600213B20015502E05A
:10076000002134200155042F00D30327E762201D08
:1007700000F0FBFE2000183000F0F7FE246104209A
:10078000C01BA06164620020206400214420015548
:10079000049A684603C800F027FF20600B980028E1
:1007A00001D00B98046005B0F0BC08BC1847FFB539
:1007B00085B01700B80000F0D6FF0600002E0BD061
:1007C000482000F0D0FF0400002C01D0266304E094
:1007D000300001F01DF800E000241098E063002CC8
:1007E00015D000220EA803C86B4613C303923A002B
:1007F000089B05A803C8FFF790FFFFF713FFE16B05
:10080000401860602000FFF73FFF012501E0002550
:10081000ED43280009B0F0BC08BC1847FFB585B00F
:100820001700B80000F09FFF0600002E0BD04820F4
:1008300000F099FF0400002C01D0266304E0300092
:1008400000F0E6FF00E00024002C10D000220EA8EB
:1008500003C86B4613C303923A00089B05A803C85C
:10086000FFF75BFF2000FFF70FFF012501E00025E8
:10087000ED43280009B0F0BC08BC18476849096876
:100880000968002901D1012100E00021002904D0DC
:100890000021C9436A4A116006E061490968C968D4
:1008A000C868674A41681160704710B50400206B42
:1008B00000F0AEFF200000F0ABFF10BC08BC1847F2
:1008C00070B5050000F0F8FE002D02D15848006810
:1008D00000E028000400201D00F072FEA06A00283D
:1008E00003D02000183000F06BFE53480068401C15
:1008F000514908604E480068844209D1211D46488C
:1009000000F036FE4F480068401C4E49086009E080
:1009100046480068401E454908602000FFF7C5FFB3
:10092000FFF7ACFF00F0D3FE42480068002805D076
:100930003F480068844201D101F086F970BC08BCD0
:100940001847F8B5002000903F480068002858D1AB
:100950002C480068451C2B480560002D0FD13048FD
:100960000768304800682E4908602E4807603748FD
:100970000068401C35490860FFF780FFC0463048DA
:100980000068854265D3C046254800680068002895
:1009900001D1012000E00020002804D00020C04345
:1009A0002749086054E01E480068C068C46866684B
:1009B000B54202D2224806604AE0201D00F000FE47
:1009C000A06A002803D02000183000F0F9FDFFF7DE
:1009D00029FEE16B401860601849E06A09688842A6
:1009E00002D91649E06A0860211D0F4800F0CCFDCD
:1009F0000F496068096849688842C5D9012000909C
:100A0000C2E738E07400004094010040E401004077
:100A1000F80100400C020040200200403402004077
:100A20006400004068000040800100407000004009
:100A3000600000407C0000408C00004078000040D6
:100A4000900000406C00004098000040880000408A
:100A5000C046FE480068C06A14214843FC49085853
:100A6000012801D901200090FA480068002801D02F
:100A70000120009004E0F8480068401CF649086036
:100A80000098F8BC08BC184770B50024002600F098
:100A900013FEF2480068401EF04908600800006834
:100AA000002849D1EE480068002845D01EE0ED48F6
:100AB000C068C4682000183000F082FD201D00F0DE
:100AC0007FFDE949E06A0968884202D9E649E06A9F
:100AD0000860211DE54800F057FDDC49E06A09681F
:100AE000C96A884202D30120DA490860DD480068FB
:100AF000002801D1012000E000200028D7D0002CE0
:100B000001D0FFF7BBFED4480568002D0DD0C046CC
:100B1000FFF717FF002802D00120CE4908606D1EA4
:100B2000002DF5D10020CC490860CA480068002893
:100B300002D0012601F088F800F0C9FD300070BC39
:100B400008BC1847F8B505000E00C9480768BF483B
:100B50000068001D00F034FD681C002808D1002E3C
:100B600006D0BA480168091DC24800F001FD1AE02C
:100B70007C19B64800684460BC4207D2B34801689B
:100B8000091DBD48006800F0FFFC0CE0AF4801689B
:100B9000091DBA48006800F0F7FCB94800688442B3
:100BA00001D2B7480460F8BC08BC1847AB480068DD
:100BB000401CAA4908607047F3B581B004000020CA
:100BC0000090FFF7F3FFAA480668216802980D1805
:100BD0002068B04207D92068A8420BD9B54209D98C
:100BE0000120009006E02068A84201D8B54201D952
:100BF0000120009025600098002803D0A81B002148
:100C0000FFF7A0FFFFF740FF0700002F01D101F021
:100C10001BF8FEBC08BC184770B504000025002C6A
:100C200008D0FFF7C3FF00212000FFF78BFFFFF77D
:100C30002BFF0500002D01D101F006F870BC08BCA7
:100C4000184770B5040000F037FD002C02D17F4832
:100C5000006800E020000600F56A00F038FD28007A
:100C600070BC08BC184710B401000023002902D151
:100C7000764C246800E00C002200D06A10BC70475B
:100C8000FEB507000D0000200090042D00D30325C1
:100C900000F012FD002F02D16C48006800E038001F
:100CA0000400E66AAE4240D0B5420BD967480068FE
:100CB00084420DD065480068C06AA84208D8012067
:100CC000009005E061480068844201D10120009055
:100CD000E06A0190E562A069C00FC007002802D158
:100CE0000420401BA0616169142201985043584AB6
:100CF0008018814201D1012000E0002000280ED0A0
:100D0000201D00F05DFC5849E06A0968884202D95C
:100D10005549E06A0860211D544800F035FC0098F0
:100D2000002801D000F090FFC04600F0D0FCFEBCCF
:100D300008BC184749480068002803D001204549ED
:100D4000086007E00020434908604848C068C06860
:100D50003E490860704770B5050000F0ADFC002DFD
:100D600002D13A48006800E028000400201D00F08D
:100D700027FCA06A002803D02000183000F020FCD7
:100D8000211D3C4800F0F4FB4420005D012802D105
:100D900000214420015500F09AFC3A4800680028E0
:100DA00005D000F089FCFFF769FD00F090FC2748B2
:100DB0000068844212D133480068002802D000F055
:100DC00043FF0BE02B48006825490968884203D19E
:100DD00000201E49086001E0FFF7ACFF70BC08BCB2
:100DE000184710B4010000200A00224C5369A342A6
:100DF00001D1012300E00023002B11D0194C936A8C
:100E0000A34201D1012300E00023002B08D1936A03
:100E1000002B01D1012300E00023002B00D0012092
:100E200010BC704770B505002C000848006884426B
:100E300040D0002C3ED000F03FFC2000FFF7D1FF57
:100E4000002835D0201D00F0BBFB1DE060000040F5
:100E50009401004084000040800000409800004061
:100E6000700000400C02004078000040800100400B
:100E700074000040340200406800004064000040FC
:100E8000900000407C000040FE49E06A096888420A
:100E900002D9FC49E06A0860211DFB4800F074FBA0
:100EA000FA49E06A0968C96A884201D300F0CCFEB9
:100EB00000F00DFC70BC08BC1847F8B50500002612
:100EC0002C0000272000FFF78CFF00281FD0F048DF
:100ED0000068002816D1ED49E06A0968C96A8842AD
:100EE00000D30126201D00F06BFBE649E06A09688B
:100EF000884202D9E349E06A0860211DE24800F017
:100F000043FB04E021001831E24800F031FB3000DF
:100F1000F8BC08BC184710B516E000F0CDFBDE4861
:100F2000C068C468201D00F04BFBDC480068401E10
:100F3000DA490860DA480068401ED949086000F0C4
:100F4000C6FB2000FFF7B1FCD54800680028E4D1BB
:100F500010BC08BC1847D34800687047FFF7FBFF78
:100F60000400FFF75FFBE16B40186060C046FFF7CD
:100F7000D2FFC54800680128F9D900F065FEF6E700
:100F80003EB5C825C74800210B005A2201AC21C438
:100F90000091C5A1C648FFF70AFC0400012C0CD142
:100FA00000F056FEA01EC34908600120C249086037
:100FB0000020C249086000F075FB3EBC08BC184721
:100FC00010B500F045FE0020BB49086000F073FB3F
:100FD00010BC08BC18470021B84A10687047AF48D9
:100FE000006870470100002902D1A848006800E0AD
:100FF0000800020010003430704770B5040000256E
:10100000FFF7D4FDAE4800680019AD490860FFF74E
:101010003BFD0500280070BC08BC184770B50500F2
:101020000C009A4801681831280000F0ADFA01213F
:101030002000FFF787FD70BC08BC184770B506009C
:101040000C0015000120C007204390490968886101
:101050008E4801681831300000F08AFA012128001A
:10106000FFF770FD70BC08BC184770B50600F0684B
:10107000C4682000183000F0A3FA854800680028F2
:101080000FD1201D00F09CFA7E49E06A0968884271
:1010900002D97C49E06A0860211D7B4800F074FA9F
:1010A00004E0210018317B4800F062FA7749E06AD9
:1010B0000968C96A884204D901250120814908606C
:1010C00000E00025280070BC08BC184770B505007A
:1010D0000E000120C00730432860EC68280000F0B3
:1010E0006FFA201D00F06CFA6649E06A09688842D0
:1010F00002D96449E06A0860211D634800F044FA9F
:101100006249E06A0968C96A884202D901206D49CA
:10111000086070BC08BC184710B5040000F0CCFA99
:1011200069480068206065480068606000F0CFFA98
:1011300010BC08BC18476449096801605F49096828
:101140004160704770B506000C0000F0B5FA5B48CE
:1011500002687068131A2068401C002801D100251D
:1011600017E0594930680968884204D07068904295
:1011700001D801250DE02068984207D92068C01ADF
:1011800020603000FFF7D7FF002502E0002020603C
:10119000012500F09CFA280070BC08BC184701200B
:1011A00048490860704739490968886937490968BA
:1011B000C96A0422511A354A12689161704770B5A4
:1011C00006000D0000F078FA30480068006C002836
:1011D0000BD101212D48006840300171002D04D051
:1011E0002800FFF7AFFC00F02FFD00F070FA00F0D0
:1011F00063FA26480068046C002C0AD0002E04D044
:10120000002022490968086403E0601E1F4909683C
:10121000086400211D4800684030017100F057FA51
:10122000200070BC08BC1847FFB581B0070014004F
:101230001D0000F041FA154800684030007902288E
:1012400012D01249096808004030096CB9430160A6
:1012500001210E48006840300171002D04D02800A3
:10126000FFF770FC00F0F0FC00F031FA00F024FA17
:10127000002C03D005480068006C2060034800681B
:10128000403023E0780000408001004060000040D2
:10129000980000400C020040200200407000004016
:1012A0006C0000409400004049444C4500000000A0
:1012B0005D0F0000900000407C0000407400004082
:1012C000800000408400004088000040007902282F
:1012D00001D0002608E098490968080040300A6CEF
:1012E00002998A4302600126002193480068403039
:1012F000017100F0ECF9300005B0F0BC08BC1847F3
:10130000FFB583B00D0016001F0001200290039C62
:1013100000F0D2F9002F01D0206C38604420005D2D
:101320000190022144200155330000F0A7FC05166E
:1013300004080C0E1700206C284320640FE0206C7A
:10134000401C20640BE0256409E00198022801D0CC
:10135000256401E00020029001E000E0C046C046A4
:101360000198012816D1201D00F02AF97349E06A7E
:101370000968884202D97149E06A0860211D7048F5
:1013800000F002F96C49E06A0968C96A884201D92B
:1013900000F05AFC00F09BF9029807B0F0BC08BCC2
:1013A0001847FFB583B00D0016001F000120019003
:1013B000039C00200090002F01D0206C3860442056
:1013C000005D0290022144200155330000F056FCDC
:1013D000051604080C0E1700206C284320640FE04B
:1013E000206C401C20640BE0256409E00298022870
:1013F00001D0256401E00020019001E000E0C0463A
:10140000C0460298012827D14E48006800280FD115
:10141000201D00F0D5F84949E06A0968884202D9E0
:101420004649E06A0860211D454800F0ADF804E037
:1014300021001831444800F09BF83F49E06A0968F0
:10144000C96A884208D90C98002802D001210C985A
:10145000016001203D490860019807B0F0BC08BC5C
:101460001847F8B505000E002C000020009044201D
:10147000075D02210155206C401C2064012F25D1FD
:101480003048006800280FD1201D00F099F82B4942
:10149000E06A0968884202D92849E06A0860211D8B
:1014A000274800F071F804E021001831264800F0C8
:1014B0005FF82149E06A0968C96A884206D9002EA6
:1014C00001D001203060012020490860F8BC08BC30
:1014D000184770B50500002D02D11748006800E0DC
:1014E0002800060000F0E8F84420805D022804D1BE
:1014F000002144208155012400E0002400F0E7F899
:10150000200070BC08BC1847F8B504000D00002C82
:1015100002D10948006800E02000060000F0CCF885
:1015200005480068076C306CA843306400F0CFF8C1
:101530003800F8BC08BC1847600000407800004044
:1015400080010040980000400C02004084000040F0
:101550000100083141600021C94381600100083168
:10156000C160016100210160704700210161704785
:1015700042684A6093688B60936859609160086123
:1015800003685B1C0360704710B402000B685C1CAE
:10159000002C01D1106907E01000083000E040681D
:1015A000446824689C42FAD944684C604C68A16045
:1015B000886041600A611468641C146010BC704744
:1015C00001000A694B6888689860081D09C858605E
:1015D0005068884201D18868506000200861106816
:1015E000401E10601068704730B40300001F0C1DCF
:1015F0000460001F3F4C0460001F0360001F3E4C4E
:101600000460001F3D4C0460001F3D4C0460001F3F
:101610003C4C0460001F3C4C0460001F3B4C0460C9
:10162000001F3B4C0460001F3A4C0460001F3A4C02
:101630000460001F394C0460001F394C0460001F17
:1016400064100460001F0260001F1F240460CC07A8
:10165000E40F002C03D0202504682C430460001FF5
:101660000024046030BC704700212E4AD1602E480F
:1016700011008861032151615114C96810229143FE
:101680002A4AD1601100096910221143274A1161C9
:101690002749284A11602421274A11600121214A43
:1016A0005160704710B5FFF7DFFF00F005FA00202A
:1016B00010BC08BC1847704710B500F0C9FA1F48A5
:1016C0000068401C1D49086010BC08BC184710B5D4
:1016D0001A48006800280AD018480068401E1749B8
:1016E000086008000068002801D100F0BDFA10BCB5
:1016F00008BC1847AAAAAAAA121212121111111193
:101700001010101009090909080808080707070739
:101710000606060605050505040404040303030381
:1017200002020202004000E060EA000000F0FFFF59
:10173000801B000000F1FFFF00F2FFFF9C00004053
:10174000454AD008C000454A10600022434B5A6009
:10175000434A444B5A6000221A600100404A4A60E2
:101760001A000A607047F8B5040000200090FFF7E7
:101770001DFA3D480068002804D1FFF7E1FF012071
:1017800039490860002C09D008346007400F002850
:1017900004D06007400F0821081A0419002C31D02A
:1017A0002F4884422ED22D4F3800056801E02F00CB
:1017B0002D686868A04202D228680028F7D129481D
:1017C00085421FD038680830009028683860686803
:1017D000001B102810D92E196868001B70606C60FF
:1017E00071681E4800E00068026852688A42FAD3B5
:1017F000026832600660C0461C4968680968081AB9
:101800001A490860FFF740F90098F8BC08BC18476F
:1018100070B506003500002E16D0083D2C00FFF7ED
:10182000C5F961680D4800E00068026852688A42A4
:10183000FAD30268226004600C49606809684018A5
:101840000A490860FFF720F970BC08BC1847074830
:10185000006870477047000050020040A000004040
:10186000F8330000A8000040B4000040B000004081
:10187000013090E12100004A0020B0E3A03071E087
:101880001A00003A203271E00F00003A203471E073
:101890000100003A00C0A0E3200000EAA03371E09C
:1018A000810340200220B2E0203371E00103402098
:1018B0000220B2E0A03271E0810240200220B2E0BA
:1018C000203271E0010240200220B2E0A03171E03C
:1018D000810140200220B2E0203171E0010140206E
:1018E0000220B2E0A03071E0810040200220B2E08E
:1018F000011050E00010A0310200A2E01EFF2FE115
:10190000022111E20010614240C032E0000060227A
:10191000203271E01D00003A203471E00F00003ADF
:101920000113A0E1203471E03F2382E30B00003A71
:101930000113A0E1203471E03F2682E30700003A62
:101940000113A0E1203471E03F2982E30113A021BB
:101950003F2C8223003071E21D00002A2113A021B8
:10196000A03371E0810340200220B2E0203371E017
:10197000010340200220B2E0A03271E08102402049
:101980000220B2E0203271E0010240200220B2E0E9
:10199000A03171E0810140200220B2E0203171E0ED
:1019A000010140200220B2E0EBFFFF2AA03071E0ED
:1019B000810040200220B2E0011050E00010A03170
:1019C0000200A2E0CCCFB0E1000060420010612232
:1019D0001EFF2FE1CCCFB0E10000604201402DE9B5
:1019E0000000B0E30000A0E10240BDE81EFF2FE1CF
:1019F00070477047704700000E50A0E11A0000EBDE
:101A000005E0A0E10050B0E10D10A0E10A30A0E136
:101A10000700C0E300D0A0E160D08DE220402DE9B6
:101A2000FAF9FFEB2040BDE80060A0E30070A0E3FE
:101A30000080A0E300B0A0E30710C1E305C0A0E16F
:101A4000C009ACE8C009ACE8C009ACE8C009ACE822
:101A500001D0A0E11EFF2FE110B50400C046C04632
:101A60002000FEF7CBFB10BC08BC184700009FE528
:101A70001EFF2FE14836004001C08FE21CFF2FE11E
:101A800001491820ABDFFEE7260002001EFF2FE110
:101A90007847C0460020B0E3203171E090FFFF3A64
:101AA000A03271E085FFFF3A203471E07AFFFF3AFF
:101AB00000C0A0E399FFFFEA7847C0466C019FE5AC
:101AC000000090E500E090E564019FE50200BEE8BB
:101AD000001080E50100BEE800F06FE1FF7FDEE866
:101AE0000000A0E13CE09EE504F05EE2000000EFB3
:101AF0001EFF2FE104E08EE201002DE900204DE9F8
:101B00000000A0E104D04DE20100BDE8004020E962
:101B100000E0A0E10100BDE8FF7F4EE90000A0E188
:101B20003CE04EE200004FE101002EE900019FE59C
:101B3000000090E501002EE9F0009FE5001090E51F
:101B400000E081E5EC009FE50FE0A0E110FF2FE150
:101B5000D8009FE5000090E500E090E5D0009FE50B
:101B60000200BEE8001080E50100BEE800F06FE171
:101B7000FF7FDEE80000A0E13CE09EE504F05EE2CD
:101B800001002DE900204DE90000A0E104D04DE264
:101B90000100BDE8004020E900E0A0E10100BDE84F
:101BA000FF7F4EE90000A0E13CE04EE200004FE183
:101BB00001002EE978009FE5000090E501002EE984
:101BC00068009FE5001090E500E081E568009FE572
:101BD0000FE0A0E110FF2FE1000050E30200000A37
:101BE00050009FE50FE0A0E110FF2FE10100A0E30E
:101BF00048109FE5000081E544009FE5000080E576
:101C000028009FE5000090E500E090E520009FE5BA
:101C10000200BEE8001080E50100BEE800F06FE1C0
:101C2000FF7FDEE80000A0E13CE09EE504F05EE21C
:101C3000600000409C000040350D0000430900009A
:101C4000004000E030F0FFFF7847C046A6FFFFEA03
:101C50007847C04600000FE1801080E301F021E1E9
:101C6000800000E21EFF2FE17847C04600000FE130
:101C70008000C0E300F021E11EFF2FE17847C0465D
:101C800001C05EE50C0053E10100003A0C30DEE7D4
:101C9000000000EA0330DEE783C08EE01CFF2FE186
:101CA000C01C000000000040B80000004801000017
:101CB000781D0000B8000040103C000070010000DA
:101CC00000100000110100120100130100140100B6
:101CD0001501001601001701001801001901001A72
:101CE00001001B01001D01001E01001F0101100168
:101CF000011101011201011301011401011501017A
:101D00001601011701011801011901011A01011B36
:101D100001011D01011E01011F011E000000000044
:101D200000000000000000000000000000000000B3
:101D300000000000000000000000000000000000A3
:101D40000000000000000000000000000000000093
:101D50000000000000000000000000000F2700004D
:101D60000000000000000000000000000000000073
:081D7000F83300000000000040
:0400000500000104F2
:00000001FF
